# if the message sequence number is too high, respond with long and send
# resend request

iCONNECT
I8=FIXT.1.1|35=A|34=5|49=TW|52=<TIME>|56=ISLD|98=0|108=30|1137=7|
E8=FIXT.1.1|9=68|35=A|34=1|49=ISLD|52=00000000-00:00:00.000|56=TW|98=0|108=30|1137=7|10=0|
E8=FIXT.1.1|9=58|35=2|34=2|49=ISLD|52=00000000-00:00:00.000|56=TW|7=1|16=0|10=0|

iDISCONNECT
